{
  "_format": "hh-sol-artifact-1",
  "contractName": "WavePortal",
  "sourceName": "contracts/WavePortal.sol",
  "abi": [
    {
      "inputs": [],
      "stateMutability": "payable",
      "type": "constructor"
    },
    {
      "anonymous": false,
      "inputs": [
        {
          "indexed": true,
          "internalType": "address",
          "name": "from",
          "type": "address"
        },
        {
          "indexed": false,
          "internalType": "uint256",
          "name": "timestamp",
          "type": "uint256"
        },
        {
          "indexed": false,
          "internalType": "string",
          "name": "message",
          "type": "string"
        }
      ],
      "name": "NewWave",
      "type": "event"
    },
    {
      "inputs": [],
      "name": "getAllWaves",
      "outputs": [
        {
          "components": [
            {
              "internalType": "address",
              "name": "waver",
              "type": "address"
            },
            {
              "internalType": "string",
              "name": "message",
              "type": "string"
            },
            {
              "internalType": "uint256",
              "name": "timestamp",
              "type": "uint256"
            }
          ],
          "internalType": "struct WavePortal.Wave[]",
          "name": "",
          "type": "tuple[]"
        }
      ],
      "stateMutability": "view",
      "type": "function"
    },
    {
      "inputs": [],
      "name": "getTotalWaves",
      "outputs": [
        {
          "internalType": "uint256",
          "name": "",
          "type": "uint256"
        }
      ],
      "stateMutability": "view",
      "type": "function"
    },
    {
      "inputs": [
        {
          "internalType": "address",
          "name": "_address",
          "type": "address"
        }
      ],
      "name": "getTotalWavesFor",
      "outputs": [
        {
          "internalType": "uint256",
          "name": "",
          "type": "uint256"
        }
      ],
      "stateMutability": "view",
      "type": "function"
    },
    {
      "inputs": [
        {
          "internalType": "address",
          "name": "",
          "type": "address"
        }
      ],
      "name": "lastWavedAt",
      "outputs": [
        {
          "internalType": "uint256",
          "name": "",
          "type": "uint256"
        }
      ],
      "stateMutability": "view",
      "type": "function"
    },
    {
      "inputs": [
        {
          "internalType": "string",
          "name": "_message",
          "type": "string"
        }
      ],
      "name": "wave",
      "outputs": [],
      "stateMutability": "nonpayable",
      "type": "function"
    }
  ],
  "bytecode": "0x60806040526200004f6040518060400160405280601381526020017f596f2c2053656e64206d652061205761766521000000000000000000000000008152506200007760201b620007e01760201c565b606444426200005f9190620001c4565b6200006b919062000261565b60018190555062000308565b62000117816040516024016200008e919062000184565b6040516020818303038152906040527f41304fac000000000000000000000000000000000000000000000000000000007bffffffffffffffffffffffffffffffffffffffffffffffffffffffff19166020820180517bffffffffffffffffffffffffffffffffffffffffffffffffffffffff83818316178352505050506200011a60201b60201c565b50565b60008151905060006a636f6e736f6c652e6c6f679050602083016000808483855afa5050505050565b60006200015082620001a8565b6200015c8185620001b3565b93506200016e8185602086016200022b565b6200017981620002f7565b840191505092915050565b60006020820190508181036000830152620001a0818462000143565b905092915050565b600081519050919050565b600082825260208201905092915050565b6000620001d18262000221565b9150620001de8362000221565b9250827fffffffffffffffffffffffffffffffffffffffffffffffffffffffffffffffff0382111562000216576200021562000299565b5b828201905092915050565b6000819050919050565b60005b838110156200024b5780820151818401526020810190506200022e565b838111156200025b576000848401525b50505050565b60006200026e8262000221565b91506200027b8362000221565b9250826200028e576200028d620002c8565b5b828206905092915050565b7f4e487b7100000000000000000000000000000000000000000000000000000000600052601160045260246000fd5b7f4e487b7100000000000000000000000000000000000000000000000000000000600052601260045260246000fd5b6000601f19601f8301169050919050565b6114f880620003186000396000f3fe608060405234801561001057600080fd5b50600436106100575760003560e01c806322d8b87e1461005c578063449d46c01461008c5780639a2cdc08146100a8578063a42a4663146100c6578063bd43a908146100f6575b600080fd5b61007660048036038101906100719190610c38565b610114565b6040516100839190611051565b60405180910390f35b6100a660048036038101906100a19190610c61565b6101dc565b005b6100b061062c565b6040516100bd9190611051565b60405180910390f35b6100e060048036038101906100db9190610c38565b610677565b6040516100ed9190611051565b60405180910390f35b6100fe61068f565b60405161010b9190610eca565b60405180910390f35b60006101956040518060400160405280601681526020017f2573206861732077617665642025642074696d6573210000000000000000000081525083600360008673ffffffffffffffffffffffffffffffffffffffff1673ffffffffffffffffffffffffffffffffffffffff16815260200190815260200160002054610879565b600360008373ffffffffffffffffffffffffffffffffffffffff1673ffffffffffffffffffffffffffffffffffffffff168152602001908152602001600020549050919050565b42610384600460003373ffffffffffffffffffffffffffffffffffffffff1673ffffffffffffffffffffffffffffffffffffffff1681526020019081526020016000205461022a9190611163565b1061026a576040517f08c379a000000000000000000000000000000000000000000000000000000000815260040161026190611031565b60405180910390fd5b42600460003373ffffffffffffffffffffffffffffffffffffffff1673ffffffffffffffffffffffffffffffffffffffff168152602001908152602001600020819055506102ee6040518060400160405280601681526020017f257320776176656420772f206d657373616765202573000000000000000000008152503383610918565b6000808154809291906103009061129a565b9190505550600360003373ffffffffffffffffffffffffffffffffffffffff1673ffffffffffffffffffffffffffffffffffffffff16815260200190815260200160002060008154809291906103559061129a565b9190505550600260405180606001604052803373ffffffffffffffffffffffffffffffffffffffff16815260200183815260200142815250908060018154018082558091505060019003906000526020600020906003020160009091909190915060008201518160000160006101000a81548173ffffffffffffffffffffffffffffffffffffffff021916908373ffffffffffffffffffffffffffffffffffffffff1602179055506020820151816001019080519060200190610419929190610b18565b50604082015181600201555050606460015442446104379190611163565b6104419190611163565b61044b91906112e3565b6001819055506104926040518060400160405280601681526020017f52616e646f6d20232067656e6572617465643a202564000000000000000000008152506001546109b7565b603260015410156105d9576104dc6040518060400160405280600781526020017f257320776f6e210000000000000000000000000000000000000000000000000081525033610a53565b6000655af3107a400090504781111561052a576040517f08c379a000000000000000000000000000000000000000000000000000000000815260040161052190610ff1565b60405180910390fd5b60003373ffffffffffffffffffffffffffffffffffffffff168260405161055090610eb5565b60006040518083038185875af1925050503d806000811461058d576040519150601f19603f3d011682016040523d82523d6000602084013e610592565b606091505b50509050806105d6576040517f08c379a00000000000000000000000000000000000000000000000000000000081526004016105cd90611011565b60405180910390fd5b50505b3373ffffffffffffffffffffffffffffffffffffffff167f5f7e16dc676677766a70e9c5628aa6c54ddb8b6e5188e2ae1e1f17f1ffbea716428360405161062192919061106c565b60405180910390a250565b600061066f6040518060400160405280601781526020017f5765206861766520256420746f74616c207761766573210000000000000000008152506000546109b7565b600054905090565b60046020528060005260406000206000915090505481565b60606002805480602002602001604051908101604052809291908181526020016000905b828210156107d757838290600052602060002090600302016040518060600160405290816000820160009054906101000a900473ffffffffffffffffffffffffffffffffffffffff1673ffffffffffffffffffffffffffffffffffffffff1673ffffffffffffffffffffffffffffffffffffffff16815260200160018201805461073c90611237565b80601f016020809104026020016040519081016040528092919081815260200182805461076890611237565b80156107b55780601f1061078a576101008083540402835291602001916107b5565b820191906000526020600020905b81548152906001019060200180831161079857829003601f168201915b50505050508152602001600282015481525050815260200190600101906106b3565b50505050905090565b610876816040516024016107f49190610eec565b6040516020818303038152906040527f41304fac000000000000000000000000000000000000000000000000000000007bffffffffffffffffffffffffffffffffffffffffffffffffffffffff19166020820180517bffffffffffffffffffffffffffffffffffffffffffffffffffffffff8381831617835250505050610aef565b50565b61091383838360405160240161089193929190610f83565b6040516020818303038152906040527f07c81217000000000000000000000000000000000000000000000000000000007bffffffffffffffffffffffffffffffffffffffffffffffffffffffff19166020820180517bffffffffffffffffffffffffffffffffffffffffffffffffffffffff8381831617835250505050610aef565b505050565b6109b283838360405160240161093093929190610f3e565b6040516020818303038152906040527fe0e9ad4f000000000000000000000000000000000000000000000000000000007bffffffffffffffffffffffffffffffffffffffffffffffffffffffff19166020820180517bffffffffffffffffffffffffffffffffffffffffffffffffffffffff8381831617835250505050610aef565b505050565b610a4f82826040516024016109cd929190610fc1565b6040516020818303038152906040527f9710a9d0000000000000000000000000000000000000000000000000000000007bffffffffffffffffffffffffffffffffffffffffffffffffffffffff19166020820180517bffffffffffffffffffffffffffffffffffffffffffffffffffffffff8381831617835250505050610aef565b5050565b610aeb8282604051602401610a69929190610f0e565b6040516020818303038152906040527f319af333000000000000000000000000000000000000000000000000000000007bffffffffffffffffffffffffffffffffffffffffffffffffffffffff19166020820180517bffffffffffffffffffffffffffffffffffffffffffffffffffffffff8381831617835250505050610aef565b5050565b60008151905060006a636f6e736f6c652e6c6f679050602083016000808483855afa5050505050565b828054610b2490611237565b90600052602060002090601f016020900481019282610b465760008555610b8d565b82601f10610b5f57805160ff1916838001178555610b8d565b82800160010185558215610b8d579182015b82811115610b8c578251825591602001919060010190610b71565b5b509050610b9a9190610b9e565b5090565b5b80821115610bb7576000816000905550600101610b9f565b5090565b6000610bce610bc9846110c1565b61109c565b905082815260208101848484011115610be657600080fd5b610bf18482856111f5565b509392505050565b600081359050610c08816114ab565b92915050565b600082601f830112610c1f57600080fd5b8135610c2f848260208601610bbb565b91505092915050565b600060208284031215610c4a57600080fd5b6000610c5884828501610bf9565b91505092915050565b600060208284031215610c7357600080fd5b600082013567ffffffffffffffff811115610c8d57600080fd5b610c9984828501610c0e565b91505092915050565b6000610cae8383610e47565b905092915050565b610cbf816111b9565b82525050565b610cce816111b9565b82525050565b6000610cdf82611102565b610ce98185611125565b935083602082028501610cfb856110f2565b8060005b85811015610d375784840389528151610d188582610ca2565b9450610d2383611118565b925060208a01995050600181019050610cff565b50829750879550505050505092915050565b6000610d548261110d565b610d5e8185611141565b9350610d6e818560208601611204565b610d77816113d0565b840191505092915050565b6000610d8d8261110d565b610d978185611152565b9350610da7818560208601611204565b610db0816113d0565b840191505092915050565b6000610dc8603483611152565b9150610dd3826113e1565b604082019050919050565b6000610deb602783611152565b9150610df682611430565b604082019050919050565b6000610e0e600083611136565b9150610e198261147f565b600082019050919050565b6000610e31600883611152565b9150610e3c82611482565b602082019050919050565b6000606083016000830151610e5f6000860182610cb6565b5060208301518482036020860152610e778282610d49565b9150506040830151610e8c6040860182610e97565b508091505092915050565b610ea0816111eb565b82525050565b610eaf816111eb565b82525050565b6000610ec082610e01565b9150819050919050565b60006020820190508181036000830152610ee48184610cd4565b905092915050565b60006020820190508181036000830152610f068184610d82565b905092915050565b60006040820190508181036000830152610f288185610d82565b9050610f376020830184610cc5565b9392505050565b60006060820190508181036000830152610f588186610d82565b9050610f676020830185610cc5565b8181036040830152610f798184610d82565b9050949350505050565b60006060820190508181036000830152610f9d8186610d82565b9050610fac6020830185610cc5565b610fb96040830184610ea6565b949350505050565b60006040820190508181036000830152610fdb8185610d82565b9050610fea6020830184610ea6565b9392505050565b6000602082019050818103600083015261100a81610dbb565b9050919050565b6000602082019050818103600083015261102a81610dde565b9050919050565b6000602082019050818103600083015261104a81610e24565b9050919050565b60006020820190506110666000830184610ea6565b92915050565b60006040820190506110816000830185610ea6565b81810360208301526110938184610d82565b90509392505050565b60006110a66110b7565b90506110b28282611269565b919050565b6000604051905090565b600067ffffffffffffffff8211156110dc576110db6113a1565b5b6110e5826113d0565b9050602081019050919050565b6000819050602082019050919050565b600081519050919050565b600081519050919050565b6000602082019050919050565b600082825260208201905092915050565b600081905092915050565b600082825260208201905092915050565b600082825260208201905092915050565b600061116e826111eb565b9150611179836111eb565b9250827fffffffffffffffffffffffffffffffffffffffffffffffffffffffffffffffff038211156111ae576111ad611314565b5b828201905092915050565b60006111c4826111cb565b9050919050565b600073ffffffffffffffffffffffffffffffffffffffff82169050919050565b6000819050919050565b82818337600083830152505050565b60005b83811015611222578082015181840152602081019050611207565b83811115611231576000848401525b50505050565b6000600282049050600182168061124f57607f821691505b6020821081141561126357611262611372565b5b50919050565b611272826113d0565b810181811067ffffffffffffffff82111715611291576112906113a1565b5b80604052505050565b60006112a5826111eb565b91507fffffffffffffffffffffffffffffffffffffffffffffffffffffffffffffffff8214156112d8576112d7611314565b5b600182019050919050565b60006112ee826111eb565b91506112f9836111eb565b92508261130957611308611343565b5b828206905092915050565b7f4e487b7100000000000000000000000000000000000000000000000000000000600052601160045260246000fd5b7f4e487b7100000000000000000000000000000000000000000000000000000000600052601260045260246000fd5b7f4e487b7100000000000000000000000000000000000000000000000000000000600052602260045260246000fd5b7f4e487b7100000000000000000000000000000000000000000000000000000000600052604160045260246000fd5b6000601f19601f8301169050919050565b7f547279696e6720746f207769746864726177206d6f7265206d6f6e657920746860008201527f616e2074686520636f6e7472616374206861732e000000000000000000000000602082015250565b7f4661696c656420746f207769746864726177206d6f6e65792066726f6d20636f60008201527f6e74726163742e00000000000000000000000000000000000000000000000000602082015250565b50565b7f576169742031356d000000000000000000000000000000000000000000000000600082015250565b6114b4816111b9565b81146114bf57600080fd5b5056fea2646970667358221220cfbbf0f2508af9782f6f847239176a700388026a28524b852f9c6831825296e264736f6c63430008040033",
  "linkReferences": {},
  "deployedLinkReferences": {}
}