{
  "_format": "hh-sol-artifact-1",
  "contractName": "WavePortal",
  "sourceName": "contracts/WavePortal.sol",
  "abi": [
    {
      "inputs": [],
      "stateMutability": "nonpayable",
      "type": "constructor"
    },
    {
      "inputs": [],
      "name": "getTotalWaves",
      "outputs": [
        {
          "internalType": "uint256",
          "name": "",
          "type": "uint256"
        }
      ],
      "stateMutability": "view",
      "type": "function"
    },
    {
      "inputs": [
        {
          "internalType": "address",
          "name": "_address",
          "type": "address"
        }
      ],
      "name": "getTotalWavesFor",
      "outputs": [
        {
          "internalType": "uint256",
          "name": "",
          "type": "uint256"
        }
      ],
      "stateMutability": "view",
      "type": "function"
    },
    {
      "inputs": [],
      "name": "wave",
      "outputs": [],
      "stateMutability": "nonpayable",
      "type": "function"
    }
  ],
  "bytecode": "0x608060405234801561001057600080fd5b506100596040518060400160405280601881526020017f596f2c204661727a612e20446f6e27742062652073616421000000000000000081525061005e60201b61025e1760201c565b6101e1565b6100fa81604051602401610072919061015f565b6040516020818303038152906040527f41304fac000000000000000000000000000000000000000000000000000000007bffffffffffffffffffffffffffffffffffffffffffffffffffffffff19166020820180517bffffffffffffffffffffffffffffffffffffffffffffffffffffffff83818316178352505050506100fd60201b60201c565b50565b60008151905060006a636f6e736f6c652e6c6f679050602083016000808483855afa5050505050565b600061013182610181565b61013b818561018c565b935061014b81856020860161019d565b610154816101d0565b840191505092915050565b600060208201905081810360008301526101798184610126565b905092915050565b600081519050919050565b600082825260208201905092915050565b60005b838110156101bb5780820151818401526020810190506101a0565b838111156101ca576000848401525b50505050565b6000601f19601f8301169050919050565b6107c8806101f06000396000f3fe608060405234801561001057600080fd5b50600436106100415760003560e01c806322d8b87e146100465780636fe15b44146100765780639a2cdc0814610080575b600080fd5b610060600480360381019061005b919061050c565b61009e565b60405161006d919061064c565b60405180910390f35b61007e610166565b005b610088610213565b604051610095919061064c565b60405180910390f35b600061011f6040518060400160405280601681526020017f2573206861732077617665642025642074696d6573210000000000000000000081525083600160008673ffffffffffffffffffffffffffffffffffffffff1673ffffffffffffffffffffffffffffffffffffffff168152602001908152602001600020546102f7565b600160008373ffffffffffffffffffffffffffffffffffffffff1673ffffffffffffffffffffffffffffffffffffffff168152602001908152602001600020549050919050565b600080815480929190610178906106f2565b9190505550600160003373ffffffffffffffffffffffffffffffffffffffff1673ffffffffffffffffffffffffffffffffffffffff16815260200190815260200160002060008154809291906101cd906106f2565b91905055506102116040518060400160405280600d81526020017f257320686173207761766564210000000000000000000000000000000000000081525033610396565b565b60006102566040518060400160405280601781526020017f5765206861766520256420746f74616c20776176657321000000000000000000815250600054610432565b600054905090565b6102f481604051602401610272919061058c565b6040516020818303038152906040527f41304fac000000000000000000000000000000000000000000000000000000007bffffffffffffffffffffffffffffffffffffffffffffffffffffffff19166020820180517bffffffffffffffffffffffffffffffffffffffffffffffffffffffff83818316178352505050506104ce565b50565b61039183838360405160240161030f939291906105de565b6040516020818303038152906040527f07c81217000000000000000000000000000000000000000000000000000000007bffffffffffffffffffffffffffffffffffffffffffffffffffffffff19166020820180517bffffffffffffffffffffffffffffffffffffffffffffffffffffffff83818316178352505050506104ce565b505050565b61042e82826040516024016103ac9291906105ae565b6040516020818303038152906040527f319af333000000000000000000000000000000000000000000000000000000007bffffffffffffffffffffffffffffffffffffffffffffffffffffffff19166020820180517bffffffffffffffffffffffffffffffffffffffffffffffffffffffff83818316178352505050506104ce565b5050565b6104ca828260405160240161044892919061061c565b6040516020818303038152906040527f9710a9d0000000000000000000000000000000000000000000000000000000007bffffffffffffffffffffffffffffffffffffffffffffffffffffffff19166020820180517bffffffffffffffffffffffffffffffffffffffffffffffffffffffff83818316178352505050506104ce565b5050565b60008151905060006a636f6e736f6c652e6c6f679050602083016000808483855afa5050505050565b6000813590506105068161077b565b92915050565b60006020828403121561051e57600080fd5b600061052c848285016104f7565b91505092915050565b61053e81610683565b82525050565b600061054f82610667565b6105598185610672565b93506105698185602086016106bf565b6105728161076a565b840191505092915050565b610586816106b5565b82525050565b600060208201905081810360008301526105a68184610544565b905092915050565b600060408201905081810360008301526105c88185610544565b90506105d76020830184610535565b9392505050565b600060608201905081810360008301526105f88186610544565b90506106076020830185610535565b610614604083018461057d565b949350505050565b600060408201905081810360008301526106368185610544565b9050610645602083018461057d565b9392505050565b6000602082019050610661600083018461057d565b92915050565b600081519050919050565b600082825260208201905092915050565b600061068e82610695565b9050919050565b600073ffffffffffffffffffffffffffffffffffffffff82169050919050565b6000819050919050565b60005b838110156106dd5780820151818401526020810190506106c2565b838111156106ec576000848401525b50505050565b60006106fd826106b5565b91507fffffffffffffffffffffffffffffffffffffffffffffffffffffffffffffffff8214156107305761072f61073b565b5b600182019050919050565b7f4e487b7100000000000000000000000000000000000000000000000000000000600052601160045260246000fd5b6000601f19601f8301169050919050565b61078481610683565b811461078f57600080fd5b5056fea26469706673582212202e5b02144a9cbf17a0aa7de153edd045aec7720cefdc1f0f278ba3f89d52981b64736f6c63430008040033",
  "linkReferences": {},
  "deployedLinkReferences": {}
}