{
  "_format": "hh-sol-artifact-1",
  "contractName": "WavePortal",
  "sourceName": "contracts/WavePortal.sol",
  "abi": [
    {
      "inputs": [],
      "stateMutability": "nonpayable",
      "type": "constructor"
    },
    {
      "anonymous": false,
      "inputs": [
        {
          "indexed": true,
          "internalType": "address",
          "name": "from",
          "type": "address"
        },
        {
          "indexed": false,
          "internalType": "uint256",
          "name": "timestamp",
          "type": "uint256"
        },
        {
          "indexed": false,
          "internalType": "string",
          "name": "message",
          "type": "string"
        }
      ],
      "name": "NewWave",
      "type": "event"
    },
    {
      "inputs": [],
      "name": "getAllWaves",
      "outputs": [
        {
          "components": [
            {
              "internalType": "address",
              "name": "waver",
              "type": "address"
            },
            {
              "internalType": "string",
              "name": "message",
              "type": "string"
            },
            {
              "internalType": "uint256",
              "name": "timestamp",
              "type": "uint256"
            }
          ],
          "internalType": "struct WavePortal.Wave[]",
          "name": "",
          "type": "tuple[]"
        }
      ],
      "stateMutability": "view",
      "type": "function"
    },
    {
      "inputs": [],
      "name": "getTotalWaves",
      "outputs": [
        {
          "internalType": "uint256",
          "name": "",
          "type": "uint256"
        }
      ],
      "stateMutability": "view",
      "type": "function"
    },
    {
      "inputs": [
        {
          "internalType": "address",
          "name": "_address",
          "type": "address"
        }
      ],
      "name": "getTotalWavesFor",
      "outputs": [
        {
          "internalType": "uint256",
          "name": "",
          "type": "uint256"
        }
      ],
      "stateMutability": "view",
      "type": "function"
    },
    {
      "inputs": [
        {
          "internalType": "string",
          "name": "_message",
          "type": "string"
        }
      ],
      "name": "wave",
      "outputs": [],
      "stateMutability": "nonpayable",
      "type": "function"
    }
  ],
  "bytecode": "0x60806040523480156200001157600080fd5b506200005d6040518060400160405280601881526020017f596f2c204661727a612e20446f6e2774206265207361642100000000000000008152506200006360201b620005081760201c565b620001f7565b62000103816040516024016200007a919062000170565b6040516020818303038152906040527f41304fac000000000000000000000000000000000000000000000000000000007bffffffffffffffffffffffffffffffffffffffffffffffffffffffff19166020820180517bffffffffffffffffffffffffffffffffffffffffffffffffffffffff83818316178352505050506200010660201b60201c565b50565b60008151905060006a636f6e736f6c652e6c6f679050602083016000808483855afa5050505050565b60006200013c8262000194565b6200014881856200019f565b93506200015a818560208601620001b0565b6200016581620001e6565b840191505092915050565b600060208201905081810360008301526200018c81846200012f565b905092915050565b600081519050919050565b600082825260208201905092915050565b60005b83811015620001d0578082015181840152602081019050620001b3565b83811115620001e0576000848401525b50505050565b6000601f19601f8301169050919050565b610ec880620002076000396000f3fe608060405234801561001057600080fd5b506004361061004c5760003560e01c806322d8b87e14610051578063449d46c0146100815780639a2cdc081461009d578063bd43a908146100bb575b600080fd5b61006b600480360381019061006691906108c4565b6100d9565b6040516100789190610bac565b60405180910390f35b61009b600480360381019061009691906108ed565b6101a1565b005b6100a561036c565b6040516100b29190610bac565b60405180910390f35b6100c36103b7565b6040516100d09190610ab5565b60405180910390f35b600061015a6040518060400160405280601681526020017f2573206861732077617665642025642074696d6573210000000000000000000081525083600260008673ffffffffffffffffffffffffffffffffffffffff1673ffffffffffffffffffffffffffffffffffffffff168152602001908152602001600020546105a1565b600260008373ffffffffffffffffffffffffffffffffffffffff1673ffffffffffffffffffffffffffffffffffffffff168152602001908152602001600020549050919050565b6101e16040518060400160405280601681526020017f257320776176656420772f206d657373616765202573000000000000000000008152503383610640565b6000808154809291906101f390610d94565b9190505550600260003373ffffffffffffffffffffffffffffffffffffffff1673ffffffffffffffffffffffffffffffffffffffff168152602001908152602001600020600081548092919061024890610d94565b9190505550600160405180606001604052803373ffffffffffffffffffffffffffffffffffffffff16815260200183815260200142815250908060018154018082558091505060019003906000526020600020906003020160009091909190915060008201518160000160006101000a81548173ffffffffffffffffffffffffffffffffffffffff021916908373ffffffffffffffffffffffffffffffffffffffff160217905550602082015181600101908051906020019061030c9291906107a4565b506040820151816002015550503373ffffffffffffffffffffffffffffffffffffffff167f5f7e16dc676677766a70e9c5628aa6c54ddb8b6e5188e2ae1e1f17f1ffbea7164283604051610361929190610bc7565b60405180910390a250565b60006103af6040518060400160405280601781526020017f5765206861766520256420746f74616c207761766573210000000000000000008152506000546106df565b600054905090565b60606001805480602002602001604051908101604052809291908181526020016000905b828210156104ff57838290600052602060002090600302016040518060600160405290816000820160009054906101000a900473ffffffffffffffffffffffffffffffffffffffff1673ffffffffffffffffffffffffffffffffffffffff1673ffffffffffffffffffffffffffffffffffffffff16815260200160018201805461046490610d31565b80601f016020809104026020016040519081016040528092919081815260200182805461049090610d31565b80156104dd5780601f106104b2576101008083540402835291602001916104dd565b820191906000526020600020905b8154815290600101906020018083116104c057829003601f168201915b50505050508152602001600282015481525050815260200190600101906103db565b50505050905090565b61059e8160405160240161051c9190610ad7565b6040516020818303038152906040527f41304fac000000000000000000000000000000000000000000000000000000007bffffffffffffffffffffffffffffffffffffffffffffffffffffffff19166020820180517bffffffffffffffffffffffffffffffffffffffffffffffffffffffff838183161783525050505061077b565b50565b61063b8383836040516024016105b993929190610b3e565b6040516020818303038152906040527f07c81217000000000000000000000000000000000000000000000000000000007bffffffffffffffffffffffffffffffffffffffffffffffffffffffff19166020820180517bffffffffffffffffffffffffffffffffffffffffffffffffffffffff838183161783525050505061077b565b505050565b6106da83838360405160240161065893929190610af9565b6040516020818303038152906040527fe0e9ad4f000000000000000000000000000000000000000000000000000000007bffffffffffffffffffffffffffffffffffffffffffffffffffffffff19166020820180517bffffffffffffffffffffffffffffffffffffffffffffffffffffffff838183161783525050505061077b565b505050565b61077782826040516024016106f5929190610b7c565b6040516020818303038152906040527f9710a9d0000000000000000000000000000000000000000000000000000000007bffffffffffffffffffffffffffffffffffffffffffffffffffffffff19166020820180517bffffffffffffffffffffffffffffffffffffffffffffffffffffffff838183161783525050505061077b565b5050565b60008151905060006a636f6e736f6c652e6c6f679050602083016000808483855afa5050505050565b8280546107b090610d31565b90600052602060002090601f0160209004810192826107d25760008555610819565b82601f106107eb57805160ff1916838001178555610819565b82800160010185558215610819579182015b828111156108185782518255916020019190600101906107fd565b5b509050610826919061082a565b5090565b5b8082111561084357600081600090555060010161082b565b5090565b600061085a61085584610c1c565b610bf7565b90508281526020810184848401111561087257600080fd5b61087d848285610cef565b509392505050565b60008135905061089481610e7b565b92915050565b600082601f8301126108ab57600080fd5b81356108bb848260208601610847565b91505092915050565b6000602082840312156108d657600080fd5b60006108e484828501610885565b91505092915050565b6000602082840312156108ff57600080fd5b600082013567ffffffffffffffff81111561091957600080fd5b6109258482850161089a565b91505092915050565b600061093a8383610a47565b905092915050565b61094b81610cb3565b82525050565b61095a81610cb3565b82525050565b600061096b82610c5d565b6109758185610c80565b93508360208202850161098785610c4d565b8060005b858110156109c357848403895281516109a4858261092e565b94506109af83610c73565b925060208a0199505060018101905061098b565b50829750879550505050505092915050565b60006109e082610c68565b6109ea8185610c91565b93506109fa818560208601610cfe565b610a0381610e6a565b840191505092915050565b6000610a1982610c68565b610a238185610ca2565b9350610a33818560208601610cfe565b610a3c81610e6a565b840191505092915050565b6000606083016000830151610a5f6000860182610942565b5060208301518482036020860152610a7782826109d5565b9150506040830151610a8c6040860182610a97565b508091505092915050565b610aa081610ce5565b82525050565b610aaf81610ce5565b82525050565b60006020820190508181036000830152610acf8184610960565b905092915050565b60006020820190508181036000830152610af18184610a0e565b905092915050565b60006060820190508181036000830152610b138186610a0e565b9050610b226020830185610951565b8181036040830152610b348184610a0e565b9050949350505050565b60006060820190508181036000830152610b588186610a0e565b9050610b676020830185610951565b610b746040830184610aa6565b949350505050565b60006040820190508181036000830152610b968185610a0e565b9050610ba56020830184610aa6565b9392505050565b6000602082019050610bc16000830184610aa6565b92915050565b6000604082019050610bdc6000830185610aa6565b8181036020830152610bee8184610a0e565b90509392505050565b6000610c01610c12565b9050610c0d8282610d63565b919050565b6000604051905090565b600067ffffffffffffffff821115610c3757610c36610e3b565b5b610c4082610e6a565b9050602081019050919050565b6000819050602082019050919050565b600081519050919050565b600081519050919050565b6000602082019050919050565b600082825260208201905092915050565b600082825260208201905092915050565b600082825260208201905092915050565b6000610cbe82610cc5565b9050919050565b600073ffffffffffffffffffffffffffffffffffffffff82169050919050565b6000819050919050565b82818337600083830152505050565b60005b83811015610d1c578082015181840152602081019050610d01565b83811115610d2b576000848401525b50505050565b60006002820490506001821680610d4957607f821691505b60208210811415610d5d57610d5c610e0c565b5b50919050565b610d6c82610e6a565b810181811067ffffffffffffffff82111715610d8b57610d8a610e3b565b5b80604052505050565b6000610d9f82610ce5565b91507fffffffffffffffffffffffffffffffffffffffffffffffffffffffffffffffff821415610dd257610dd1610ddd565b5b600182019050919050565b7f4e487b7100000000000000000000000000000000000000000000000000000000600052601160045260246000fd5b7f4e487b7100000000000000000000000000000000000000000000000000000000600052602260045260246000fd5b7f4e487b7100000000000000000000000000000000000000000000000000000000600052604160045260246000fd5b6000601f19601f8301169050919050565b610e8481610cb3565b8114610e8f57600080fd5b5056fea2646970667358221220c95975532ef61ba1a6c0d93144475d8505ce1e96d1fd229b400699a4b330915564736f6c63430008040033",
  "linkReferences": {},
  "deployedLinkReferences": {}
}