{
  "_format": "hh-sol-artifact-1",
  "contractName": "WavePortal",
  "sourceName": "contracts/WavePortal.sol",
  "abi": [
    {
      "inputs": [],
      "stateMutability": "payable",
      "type": "constructor"
    },
    {
      "anonymous": false,
      "inputs": [
        {
          "indexed": true,
          "internalType": "address",
          "name": "from",
          "type": "address"
        },
        {
          "indexed": false,
          "internalType": "uint256",
          "name": "timestamp",
          "type": "uint256"
        },
        {
          "indexed": false,
          "internalType": "string",
          "name": "message",
          "type": "string"
        }
      ],
      "name": "NewWave",
      "type": "event"
    },
    {
      "inputs": [],
      "name": "getAllWaves",
      "outputs": [
        {
          "components": [
            {
              "internalType": "address",
              "name": "waver",
              "type": "address"
            },
            {
              "internalType": "string",
              "name": "message",
              "type": "string"
            },
            {
              "internalType": "uint256",
              "name": "timestamp",
              "type": "uint256"
            }
          ],
          "internalType": "struct WavePortal.Wave[]",
          "name": "",
          "type": "tuple[]"
        }
      ],
      "stateMutability": "view",
      "type": "function"
    },
    {
      "inputs": [],
      "name": "getTotalWaves",
      "outputs": [
        {
          "internalType": "uint256",
          "name": "",
          "type": "uint256"
        }
      ],
      "stateMutability": "view",
      "type": "function"
    },
    {
      "inputs": [
        {
          "internalType": "address",
          "name": "_address",
          "type": "address"
        }
      ],
      "name": "getTotalWavesFor",
      "outputs": [
        {
          "internalType": "uint256",
          "name": "",
          "type": "uint256"
        }
      ],
      "stateMutability": "view",
      "type": "function"
    },
    {
      "inputs": [
        {
          "internalType": "string",
          "name": "_message",
          "type": "string"
        }
      ],
      "name": "wave",
      "outputs": [],
      "stateMutability": "nonpayable",
      "type": "function"
    }
  ],
  "bytecode": "0x60806040526200004f6040518060400160405280601381526020017f596f2c2053656e64206d652061205761766521000000000000000000000000008152506200005560201b620006041760201c565b620001e9565b620000f5816040516024016200006c919062000162565b6040516020818303038152906040527f41304fac000000000000000000000000000000000000000000000000000000007bffffffffffffffffffffffffffffffffffffffffffffffffffffffff19166020820180517bffffffffffffffffffffffffffffffffffffffffffffffffffffffff8381831617835250505050620000f860201b60201c565b50565b60008151905060006a636f6e736f6c652e6c6f679050602083016000808483855afa5050505050565b60006200012e8262000186565b6200013a818562000191565b93506200014c818560208601620001a2565b6200015781620001d8565b840191505092915050565b600060208201905081810360008301526200017e818462000121565b905092915050565b600081519050919050565b600082825260208201905092915050565b60005b83811015620001c2578082015181840152602081019050620001a5565b83811115620001d2576000848401525b50505050565b6000601f19601f8301169050919050565b61112e80620001f96000396000f3fe608060405234801561001057600080fd5b506004361061004c5760003560e01c806322d8b87e14610051578063449d46c0146100815780639a2cdc081461009d578063bd43a908146100bb575b600080fd5b61006b600480360381019061006691906109c0565b6100d9565b6040516100789190610d66565b60405180910390f35b61009b600480360381019061009691906109e9565b6101a1565b005b6100a5610468565b6040516100b29190610d66565b60405180910390f35b6100c36104b3565b6040516100d09190610c2f565b60405180910390f35b600061015a6040518060400160405280601681526020017f2573206861732077617665642025642074696d6573210000000000000000000081525083600260008673ffffffffffffffffffffffffffffffffffffffff1673ffffffffffffffffffffffffffffffffffffffff1681526020019081526020016000205461069d565b600260008373ffffffffffffffffffffffffffffffffffffffff1673ffffffffffffffffffffffffffffffffffffffff168152602001908152602001600020549050919050565b6101e16040518060400160405280601681526020017f257320776176656420772f206d65737361676520257300000000000000000000815250338361073c565b6000808154809291906101f390610f59565b9190505550600260003373ffffffffffffffffffffffffffffffffffffffff1673ffffffffffffffffffffffffffffffffffffffff168152602001908152602001600020600081548092919061024890610f59565b9190505550600160405180606001604052803373ffffffffffffffffffffffffffffffffffffffff16815260200183815260200142815250908060018154018082558091505060019003906000526020600020906003020160009091909190915060008201518160000160006101000a81548173ffffffffffffffffffffffffffffffffffffffff021916908373ffffffffffffffffffffffffffffffffffffffff160217905550602082015181600101908051906020019061030c9291906108a0565b506040820151816002015550506000655af3107a4000905047811115610367576040517f08c379a000000000000000000000000000000000000000000000000000000000815260040161035e90610d26565b60405180910390fd5b60003373ffffffffffffffffffffffffffffffffffffffff168260405161038d90610c1a565b60006040518083038185875af1925050503d80600081146103ca576040519150601f19603f3d011682016040523d82523d6000602084013e6103cf565b606091505b5050905080610413576040517f08c379a000000000000000000000000000000000000000000000000000000000815260040161040a90610d46565b60405180910390fd5b3373ffffffffffffffffffffffffffffffffffffffff167f5f7e16dc676677766a70e9c5628aa6c54ddb8b6e5188e2ae1e1f17f1ffbea716428560405161045b929190610d81565b60405180910390a2505050565b60006104ab6040518060400160405280601781526020017f5765206861766520256420746f74616c207761766573210000000000000000008152506000546107db565b600054905090565b60606001805480602002602001604051908101604052809291908181526020016000905b828210156105fb57838290600052602060002090600302016040518060600160405290816000820160009054906101000a900473ffffffffffffffffffffffffffffffffffffffff1673ffffffffffffffffffffffffffffffffffffffff1673ffffffffffffffffffffffffffffffffffffffff16815260200160018201805461056090610ef6565b80601f016020809104026020016040519081016040528092919081815260200182805461058c90610ef6565b80156105d95780601f106105ae576101008083540402835291602001916105d9565b820191906000526020600020905b8154815290600101906020018083116105bc57829003601f168201915b50505050508152602001600282015481525050815260200190600101906104d7565b50505050905090565b61069a816040516024016106189190610c51565b6040516020818303038152906040527f41304fac000000000000000000000000000000000000000000000000000000007bffffffffffffffffffffffffffffffffffffffffffffffffffffffff19166020820180517bffffffffffffffffffffffffffffffffffffffffffffffffffffffff8381831617835250505050610877565b50565b6107378383836040516024016106b593929190610cb8565b6040516020818303038152906040527f07c81217000000000000000000000000000000000000000000000000000000007bffffffffffffffffffffffffffffffffffffffffffffffffffffffff19166020820180517bffffffffffffffffffffffffffffffffffffffffffffffffffffffff8381831617835250505050610877565b505050565b6107d683838360405160240161075493929190610c73565b6040516020818303038152906040527fe0e9ad4f000000000000000000000000000000000000000000000000000000007bffffffffffffffffffffffffffffffffffffffffffffffffffffffff19166020820180517bffffffffffffffffffffffffffffffffffffffffffffffffffffffff8381831617835250505050610877565b505050565b61087382826040516024016107f1929190610cf6565b6040516020818303038152906040527f9710a9d0000000000000000000000000000000000000000000000000000000007bffffffffffffffffffffffffffffffffffffffffffffffffffffffff19166020820180517bffffffffffffffffffffffffffffffffffffffffffffffffffffffff8381831617835250505050610877565b5050565b60008151905060006a636f6e736f6c652e6c6f679050602083016000808483855afa5050505050565b8280546108ac90610ef6565b90600052602060002090601f0160209004810192826108ce5760008555610915565b82601f106108e757805160ff1916838001178555610915565b82800160010185558215610915579182015b828111156109145782518255916020019190600101906108f9565b5b5090506109229190610926565b5090565b5b8082111561093f576000816000905550600101610927565b5090565b600061095661095184610dd6565b610db1565b90508281526020810184848401111561096e57600080fd5b610979848285610eb4565b509392505050565b600081359050610990816110e1565b92915050565b600082601f8301126109a757600080fd5b81356109b7848260208601610943565b91505092915050565b6000602082840312156109d257600080fd5b60006109e084828501610981565b91505092915050565b6000602082840312156109fb57600080fd5b600082013567ffffffffffffffff811115610a1557600080fd5b610a2184828501610996565b91505092915050565b6000610a368383610bac565b905092915050565b610a4781610e78565b82525050565b610a5681610e78565b82525050565b6000610a6782610e17565b610a718185610e3a565b935083602082028501610a8385610e07565b8060005b85811015610abf5784840389528151610aa08582610a2a565b9450610aab83610e2d565b925060208a01995050600181019050610a87565b50829750879550505050505092915050565b6000610adc82610e22565b610ae68185610e56565b9350610af6818560208601610ec3565b610aff8161102f565b840191505092915050565b6000610b1582610e22565b610b1f8185610e67565b9350610b2f818560208601610ec3565b610b388161102f565b840191505092915050565b6000610b50603483610e67565b9150610b5b82611040565b604082019050919050565b6000610b73602783610e67565b9150610b7e8261108f565b604082019050919050565b6000610b96600083610e4b565b9150610ba1826110de565b600082019050919050565b6000606083016000830151610bc46000860182610a3e565b5060208301518482036020860152610bdc8282610ad1565b9150506040830151610bf16040860182610bfc565b508091505092915050565b610c0581610eaa565b82525050565b610c1481610eaa565b82525050565b6000610c2582610b89565b9150819050919050565b60006020820190508181036000830152610c498184610a5c565b905092915050565b60006020820190508181036000830152610c6b8184610b0a565b905092915050565b60006060820190508181036000830152610c8d8186610b0a565b9050610c9c6020830185610a4d565b8181036040830152610cae8184610b0a565b9050949350505050565b60006060820190508181036000830152610cd28186610b0a565b9050610ce16020830185610a4d565b610cee6040830184610c0b565b949350505050565b60006040820190508181036000830152610d108185610b0a565b9050610d1f6020830184610c0b565b9392505050565b60006020820190508181036000830152610d3f81610b43565b9050919050565b60006020820190508181036000830152610d5f81610b66565b9050919050565b6000602082019050610d7b6000830184610c0b565b92915050565b6000604082019050610d966000830185610c0b565b8181036020830152610da88184610b0a565b90509392505050565b6000610dbb610dcc565b9050610dc78282610f28565b919050565b6000604051905090565b600067ffffffffffffffff821115610df157610df0611000565b5b610dfa8261102f565b9050602081019050919050565b6000819050602082019050919050565b600081519050919050565b600081519050919050565b6000602082019050919050565b600082825260208201905092915050565b600081905092915050565b600082825260208201905092915050565b600082825260208201905092915050565b6000610e8382610e8a565b9050919050565b600073ffffffffffffffffffffffffffffffffffffffff82169050919050565b6000819050919050565b82818337600083830152505050565b60005b83811015610ee1578082015181840152602081019050610ec6565b83811115610ef0576000848401525b50505050565b60006002820490506001821680610f0e57607f821691505b60208210811415610f2257610f21610fd1565b5b50919050565b610f318261102f565b810181811067ffffffffffffffff82111715610f5057610f4f611000565b5b80604052505050565b6000610f6482610eaa565b91507fffffffffffffffffffffffffffffffffffffffffffffffffffffffffffffffff821415610f9757610f96610fa2565b5b600182019050919050565b7f4e487b7100000000000000000000000000000000000000000000000000000000600052601160045260246000fd5b7f4e487b7100000000000000000000000000000000000000000000000000000000600052602260045260246000fd5b7f4e487b7100000000000000000000000000000000000000000000000000000000600052604160045260246000fd5b6000601f19601f8301169050919050565b7f547279696e6720746f207769746864726177206d6f7265206d6f6e657920746860008201527f616e2074686520636f6e7472616374206861732e000000000000000000000000602082015250565b7f4661696c656420746f207769746864726177206d6f6e65792066726f6d20636f60008201527f6e74726163742e00000000000000000000000000000000000000000000000000602082015250565b50565b6110ea81610e78565b81146110f557600080fd5b5056fea264697066735822122069288d26fa71420c1038409f7e224765e5df1a511b1490317e0007ab7fc2fa9664736f6c63430008040033",
  "linkReferences": {},
  "deployedLinkReferences": {}
}